:020000040800F2
:100000000080002025050008490400084B04000872
:100010004D0400084F0400085104000800000000CF
:100020000000000000000000000000005304000871
:100030005504000800000000570400085904000897
:1000400075050008750500087505000875050008A8
:100050007505000875050008750500087505000898
:100060007505000875050008750500087505000888
:100070007505000875050008750500087505000878
:1000800075050008000000007505000875050008EA
:100090007505000861040008710400087505000872
:1000A0007505000875050008750500087505000848
:1000B0007505000875050008750500087505000838
:1000C0007505000875050008750500087505000828
:1000D0007505000875050008750500087505000818
:1000E0007505000875050008750500087505000808
:1000F000750500087505000875050008000000007A
:1001000000000000750500080000000075050008EB
:10011000750500080000000075050008810400084E
:1001200075050008750500087505000875050008C7
:1001300075050008000000000000000075050008BB
:1001400075050008750500080000000000000000AB
:10015000000000000000000000000000000000009F
:10016000000000000000000000000000750500080D
:1001700075050008000000000000000000000000FD
:1001800000000000750500080000000000000000ED
:10019000000000000000000000000000000000005F
:1001A000000000000000000075050008750500084B
:1001B00075050008750500087505000800000000B9
:1001C00000000000750500080000000000000000AD
:0801D000750500087505000823
:1001D80010B5054C237833B9044B13B10448AFF379
:1001E80000800123237010BD5C0400200000000083
:1001F800502D000808B5034B1BB103490348AFF362
:10020800008008BD0000000060040020502D000898
:1002180010B51248124B0360002343604FF440723C
:100228008260C360037443748374042242610821AA
:1002380081611F24C4610162426202228262072135
:10024800C1620263012242638363C36300F038FE24
:1002580000B910BD00F086F8FBE700BF7804002065
:100268000064004010B598B0044600211391149121
:10027800159116911791442202A802F0A3FC226856
:10028800224B9A4201D018B010BD4FF4805302930C
:100298004FF000730E9302A802F0DCF8002832D168
:1002A8001B4B9A6D42F000729A659A6D02F00072CB
:1002B8000092009ADA6C42F00102DA64DB6C03F017
:1002C80001030193019B4FF4C0531393022314932A
:1002D8000024159416940923179313A94FF09040FE
:1002E80001F0EAFA22460521152000F019FD152033
:1002F80000F04EFD22460521162000F011FD1620C3
:1003080000F046FDBFE700F02DF8C9E700640040A3
:100318000010024010B586B00024019402940394A2
:10032800049405940E4BDA6C42F00102DA64DB6C3B
:1003380003F001030093009B012204214FF0904039
:1003480001F0A8FB0423019301230293039404946E
:1003580001A94FF0904001F0AFFA06B010BD00BF00
:100368000010024072B6FEE700B595B038220021B1
:1003780006A802F027FC0020019002900390049048
:10038800059001F095FB022306934FF480720992C1
:1003980040220A920D930E9301220F92142210927A
:1003A80011931293139306A801F0A2FC80B90F23AE
:1003B80001930323029300230393049305930421D9
:1003C8000DEB010001F04AFF20B915B05DF804FB00
:1003D800FFF7C8FFFFF7C6FF08B500F059FCFFF7A5
:1003E800C3FFFFF797FFFFF713FF00F04FF805482B
:1003F80002F0A2F900F078FB00F0D8F900F072F9E9
:10040800FCE700BFDC04002000B583B00B4B1A6E7C
:1004180042F001021A661A6E02F001020092009A76
:100428009A6D42F080529A659B6D03F08053019358
:10043800019B01F0C3FB03B05DF804FB0010024010
:10044800FEE7FEE7FEE7FEE7FEE770477047704706
:1004580008B500F02DFC08BD08B5024800F0C9FF3A
:1004680008BD00BF7804002008B5024800F0C1FFAD
:1004780008BD00BF7804002008B5024802F0A2F9C0
:1004880008BD00BFDC0400207047000000B585B03F
:1004980000230193029303930E480F4A02609F22A0
:1004A800426083604FF47A72C260836102F0E4FABA
:1004B80050B900230193039301A9064802F00CFBED
:1004C80028B905B05DF804FBFFF74CFFF1E7FFF72B
:1004D80049FFF6E7DC0400200014004002680E4BD8
:1004E8009A4200D0704700B583B003F5FE339A6D89
:1004F80042F020029A659B6D03F020030193019B53
:1005080000220621372000F00BFC372000F040FCC9
:1005180003B05DF804FB00BF001400400D48854699
:10052800FFF7B2FF0C480D490D4A002302E0D458EA
:10053800C4500433C4188C42F9D30A4A0A4C002325
:1005480001E013600432A242FBD302F017FBFFF76D
:1005580043FFFEE700800020000000205C0400202C
:10056800982D00085C040020FC050020FEE7000030
:1005780000B583B000230193012201A9034800F0CC
:100588001FFA019803B05DF804FB00BF0050000893
:1005980008B5184B1A68184B1340B3F1005F00D028
:1005A80008BD00F037FB72B6012383F3108801F011
:1005B80039FB4FF0E02200231361536193610BE094
:1005C8000E4A03F120004FF0FF3142F8201003F1EA
:1005D800600042F820100133072BF1D9002282F382
:1005E8001088044B196881F3088882F314885B68C3
:1005F8009847FEE7000001080000FC2F00E100E03A
:10060800F0B589B03221002000F0BEFA314C52E03A
:10061800002000F0E3FA48B92F4B1B78002B4AD092
:10062800002000F0C7FAFFF7B3FF48E004214FF0BD
:10063800904001F034FAEFE7CB0003F10B0262447B
:100648002648805C4FEACC0EAEF12002CEF12005A0
:1006580000FA02F220FA05F52A4300FA0EF02033D8
:100668006B4453F8206C304353F81C6C324343F806
:10067800200C43F81C2C0CF1010CBCF1070FDBDD3E
:100688000131032909DC0026002708AB03EBC1036D
:1006980043E908674FF0000CEFE708226946204657
:1006A80000F0C8F920340D4991F82B000E2240F4CF
:1006B800807000F08BF80A4B1B78002BA8D000251F
:1006C800074B1D7020222946684602F07BFA29460E
:1006D800D7E700BF00000108B80500207805002012
:1006E8007405002008B5FFF743FFB0F1BB3F14D0F5
:1006F800B0F1FF3F03D0B0F1AA3F0BD008BD0C48C2
:1007080000F0BEF900B1FEE70A4B1B78002BFBD0C6
:10071800FFF776FFFFF73CFFF0E7054800F0B0F978
:1007280000B1FEE7034B1B78002BFBD0FFF768FFF7
:1007380000000108BC05002000B586464FF0000CFB
:100748004FF6FF700DE040080133072B07DC10F06F
:10075800010FF8D04AF2010282EA5000F4E70CF1E6
:10076800010C614504DD1EF8013B58400023ECE70D
:100778005DF804FB00B587B00023009301930123C3
:1007880003930223029340F22223049340F2FF735F
:1007980005936946044800F07DFC10B907B05DF880
:1007A80004FBFFF7DFFDF9E77804002010B5FFF739
:1007B800E1FF054C00220121204600F08DFD204676
:1007C80000F098FC10BD00BF7804002008B5104B5D
:1007D8001860002058609860DA604FF000421A6193
:1007E8004FF480125A614FF400129A61D86118626E
:1007F800084B1B68D3F8C43013F4001F01D0002045
:1008080008BD0A460249034800F08BFCF8E700BF20
:10081800500500207804002083890E2B3FD000204B
:100828007047C85C444AD05401332F2BF9DD424B42
:1008380093F82B3043F4807340F29512934268D1B9
:1008480030B585B00023ADF804303B4B1C788DF8EB
:1008580004405B788DF80530022C5CD1FD2B5DD10E
:100868000023ADF80830344A93788DF80830D278F0
:100878008DF80920002B53D1302A53D1ADF80C3014
:100888002D4B93F82E208DF80C2093F82F308DF8EF
:100898000D30032A48D1FC2B03D004203CE0002370
:1008A800C3E7254890F82D3090F82C5045EA0325E9
:1008B8002C21FFF741FF854238D11F4B5B79032B71
:1008C80036D11D4B1A7A5B7A43EA02231B4A1288F7
:1008D8009A4200D373BB194A1380174B987A0128A0
:1008E80005D0022818D003280ED0204614E0144B57
:1008F80001221A70104991F82B000E2240F48070E2
:10090800FFF764FF082007E00E4B01221A70092048
:1009180002E007207047032005B030BD0320FBE745
:100928000120F9E70120F7E70420F5E70620F3E7BF
:100938000520F1E70520EFE778050020BA0500203B
:10094800BC050020B8050020194B984200D070471C
:1009580030B591B0044611F0010504D111F0020F31
:100968001ED111B030BD134D6B462A46402100F010
:1009780001FC69462846FFF74FFF022805D00022F0
:100988000121204600F0A8FCEBE70B4B01221A706E
:10099800F5E76B46074A4021204600F0EBFB01359E
:1009A800012DF6D900220221014800F095FCD8E774
:1009B800780400202805002074050020006870478E
:1009C800F8B505460F461646002406E02846FFF708
:1009D800F5FF47F8240004350134B442F6D3F8BDD6
:1009E800002300E001333F2B0CDCDA0202F1006245
:1009F8008242F7D85A1CD20202F100628242F1D92F
:100A0800D8B27047002300E001333F2B11DCDA0233
:100A180002F1006202F580228242F5D85A1CD20205
:100A280002F1006202F580228242EDD94033D8B249
:100A38007047704770B504460D46164600F0C2FD73
:100A480004EB86064CF2503000F0E2FDA8B9B4423F
:100A580013D2D5E900232146002000F009FE10B981
:100A680008340835F3E704214FF0904001F017F8F7
:100A78004FF47A7000F02EF9F5E700F0BBFD70BD79
:100A880030B587B004460025019500F09BFD20464F
:100A9800FFF7A6FFC0F140030122039202950490DC
:100AA800059301A902A800F091FE48B904464CF24A
:100AB800503000F0ADFD00F09DFD204607B030BD80
:100AC80000F098FD0124F8E743684BB14368013B07
:100AD80043602BB9012343700378DBB2012B00D0AC
:100AE800704783684360FBE700230FE0094803EB86
:100AF80043018A000244002151609160517003EB68
:100B0800430C4FEA8C0281540133DBB2032BEDD93D
:100B1800704700BFC40500200268174B9A4200D0F6
:100B2800704710B500F0C4F8002407E004EB440057
:100B3800124B03EB8000FFF7C7FF0134032CF5D9F4
:100B48000F4B1A6801321A601A686FF000439A4214
:100B58000AD00C4A138801331BB2138013881BB2C6
:100B6800B3F57A7F04D010BD054B00221A60F0E778
:100B7800134600221A80F6E700140040C40500203E
:100B8800C0050020BE050020032800D9FEE772B684
:100B9800074A00EB400302EB830359609960002188
:100BA800597000EB400083000121D15462B67047B0
:100BB800C4050020032800D9FEE772B6064900EBF9
:100BC800400301EB830300225A605A7000EB400097
:100BD8008300CA5462B67047C40500200346032840
:100BE80011D800EB4002094901EB82025078C0B2EB
:100BF800012801D00020704703EB430301EB830376
:100C080000225A7070470020704700BFC4050020BA
:100C18007047000010B5094B4FF0FF329A6300246B
:100C28009C631A641C649A629C62DA62DC621A63CE
:100C38001C63FFF7EDFF204610BD00BF0010024007
:100C4800104B1B680BB90120704710B504464FF4D0
:100C58007A70B0FBF3F30C4A1068B0FBF3F000F0C5
:100C6800A5F868B90F2C01D901200AE00022214615
:100C78004FF0FF3000F054F8044B1C60002000E0F7
:100C8800012010BD04000020000000200800002002
:100C980010B5032000F032F80F20FFF7D1FF10B194
:100CA8000124204610BD0446FFF7AEFBF9E700001B
:100CB800034A1368034909680B441360704700BF6F
:100CC800F405002004000020014B1868704700BF9D
:100CD800F405002038B50446FFF7F6FF0546B4F1E1
:100CE800FF3F02D0044B1B681C44FFF7EDFF401B7D
:100CF800A042FAD338BD00BF04000020074AD368D9
:100D080023F4E0631B041B0C000200F4E0600343BF
:100D180043F0BF6343F40033D360704700ED00E055
:100D280000B5194BDB68C3F30223C3F1070CBCF110
:100D3800040F28BF4FF0040C03F1040EBEF1060F98
:100D480018D9033B4FF0FF3E0EFA0CFC21EA0C01C8
:100D580099400EFA03F322EA0303194300280BDB38
:100D68000901C9B200F1604000F5614080F8001344
:100D78005DF804FB0023E5E700F00F000901C9B2A4
:100D8800024B1954F4E700BF00ED00E014ED00E059
:100D9800002807DB00F01F02400901239340024AA4
:100DA80042F82030704700BF00E100E00138B0F1A0
:100DB800807F0BD24FF0E0235861054AF02182F87A
:100DC80023100020986107221A617047012070479C
:100DD80000ED00E0144B03640168D1F8802022F490
:100DE800F812D0F834C042EA0C42C1F880200F4A09
:100DF80042640168D1F8802022F07062D0F838C0CF
:100E080042EA0C62C1F88020094A8264D832C2647E
:100E1800D83202651832426502E0002243F8042BFA
:100E2800044A9342F9D9704700A4004070A40040D6
:100E3800B0A400404FA7004070B54C68ECB90D69EC
:100E48008C6825430C6845EA8445CC690E6A44EAF7
:100E580006648E6934434E693443CE6844EA0644D6
:100E6800406D03EBC30300EBC30E40F83350CEF8DC
:100E780004400EF1080E002019E00C698D68254326
:100E88000C68254345F08045DFE702EB000C9CF831
:100E980003409CF802301B0443EA04639CF80140B9
:100EA80043EA0423145C23434EF8043B0430CB6824
:100EB800024CE35C8342E8D870BD00BF782D00087F
:100EC800002800F0E38038B5044690F85C30D3B1D0
:100ED8002268936923F010039361FFF7F5FE054636
:100EE80023689A6912F0080F12D0FFF7EDFE401B35
:100EF8000A28F5D9236E43F001032366032384F8F7
:100F08005C30012038BD80F85D30FFF7ABF9DFE7D2
:100F18009A6942F001029A61FFF7D6FE05462368F6
:100F28009A6912F0010F0DD1FFF7CEFE401B0A2877
:100F3800F5D9236E43F001032366032384F85C305C
:100F48000120DFE79A6942F002029A612268504B59
:100F58009A4242D0237C012B45D02268936943F002
:100F680040039361637C012B43D02268936923F487
:100F780080439361A37C012B41D02268936943F499
:100F8800805393612268936923F44073A1680B43EB
:100F980093612268936923F0A4039361226813691B
:100FA80023F010031361E368012B2ED0002B31D0FE
:100FB800022B54D02268936943F08003936122681E
:100FC800136943F010031361E368032B22D12268ED
:100FD800936943F0200393611CE06268A3F5806382
:100FE800C3F80025B6E72268936923F040039361AC
:100FF800B8E72268936943F480439361BAE72268AB
:10100800936923F480539361BCE72268936943F0A2
:1010180004039361A3695A1EE369013B1B0243EA77
:101028004263226A013A13436269013A216843EA3A
:101038000243CB61A368B3F5407F16D02268D2F88B
:10104800C030E16B0B43C2F8C0302046FFF7C2FE48
:101058000020A0652066012384F85C3052E72268EE
:10106800936943F020039361D4E7A36A013BE26AE2
:10107800013A43EA0223226B013A43EA0213626A05
:10108800013A216843EA0243CB60D7E70120704761
:101098000064004090F85C30013BDBB2012B05D9BD
:1010A800036E43F002030366012070470B687BB9A7
:1010B8008A68CB68DB0643EA82730A6943EA02431B
:1010C8004A691343026C496842F82130002070478E
:1010D800CA680B6943EA42724B69D1F808C043EA0F
:1010E8008C73406C496800EBC10C40F83120CCF897
:1010F8000430EBE790F85C30DBB2012B05D0036ECF
:1011080043F00403036601207047022380F85C3033
:101118000268936923F0010393610023036618466C
:10112800704738B5044690F85C30DBB2022B1BD10F
:101138000368D3F8C40010F4001F05D0236E43F4ED
:1011480000732366012014E0D3F8C450C5F30145A9
:101158002B462046FFF770FE22680123AB40C2F8F9
:10116800CC30A365002004E0036E43F00803036657
:10117800012038BD70B590F85C40E4B2022C40F014
:10118800A28040290BD00468D4F8985015F00F0FAE
:101198002DD1036E43F480730366012098E0046840
:1011A800D4F8905015F00F0F05D1036E43F48073F7
:1011B800036601208CE0D4F89050C5F3006C15F05C
:1011C800807F08D0D4F88050C5F3402C15F4007FF8
:1011D80001D04FF0010CD4F89040C4F301240CEB7B
:1011E8000405846C05EBC50C04EBCC0C1AE0D4F8B0
:1011F8009850C5F3006C15F0807F08D0D4F8805063
:10120800C5F3002C15F4807F01D04FF0010CD4F801
:101218009840C4F301240CEB0405C46C05EBC50C21
:1012280004EBCC0CDCF8004004F08044546074BB40
:10123800DCF80040C4F38A441460DCF8004004F091
:1012480000549460DCF8004004F000441461BCF8D9
:101258000440D461BCF8064004F00F04D460DCF804
:10126800044004F480145461DCF8044004F40014CD
:1012780094619CF8074004F07F041462DCF8044091
:10128800E40F54620CF1080E4FF0000C0BE0DCF890
:10129800004024F060441460CFE71EF80C4003F8C7
:1012A8000C400CF1010C0B4CD668A45D6445F4D8D5
:1012B800402904D00368C3F89C50002008E0036864
:1012C800C3F89450F9E7036E43F00803036601205E
:1012D80070BD00BF782D000890F85C30013BDBB290
:1012E800012B05D9036E43F0020303660120704702
:1012F80070B40468A36D11F0070602D013F0010F53
:1013080023D011F0380F02D013F0020F1DD011F4C2
:10131800E07F02D013F0040F17D011F4F05F02D071
:1013280013F0080F11D011F4604F02D013F0100F12
:101338000BD011F4403F02D013F0200F05D011F468
:101348007C0F06D013F0400F03D1E56D45F0010581
:10135800E56516B113F0010F23D111F0380F02D053
:1013680013F0020F1DD111F4E07F02D013F0040F27
:1013780017D111F4F05F02D013F0080F11D111F456
:10138800604F02D013F0100F0BD111F4403F02D080
:1013980013F0200F05D111F47C0F07D013F0400F84
:1013A80004D00468E36D43F00203E36511F0800F95
:1013B80005D00468D4F8DC301343C4F8DC3011F4E9
:1013C800807F05D00468D4F8E0301A43C4F8E020E0
:1013D8000268536D19435165002070BC704770470F
:1013E800704770477047704770477047704770473D
:1013F80070472DE9F84F044603681A6D02F4E05A65
:101408005A6D0AEA020A1A6D02F007095A6D09EACA
:1014180002091A6D02F038085A6D08EA02081E6DB2
:1014280006F471065A6D16401F6D07F460275A6D51
:101438001740D3F854B01D6D15F0400F02D01BF0C3
:10144800400F41D115F4807F02D01BF4807F40D13A
:10145800BAF1000F4AD1B9F1000F4FD1B8F1000F1E
:1014680054D115F4007F02D01BF4007F56D115F03B
:10147800800F02D01BF0800F58D115F4005F02D006
:101488001BF4005F5ED115F4004F02D01BF4004F2F
:1014980060D115F4804F0AD01BF4804F07D0236821
:1014A8004FF480421A65236E43F080032366002FB1
:1014B80058D126B123681E65236E1E432666236E07
:1014C800002B56D1BDE8F88F40221A65FFF78EFF32
:1014D800B8E72368D3F8D810D3F8E0204FF4807029
:1014E800186511402046FFF77EFFB1E72368C3F86F
:1014F80050A051462046FFF772FFACE72368C3F8B7
:10150800509049462046FFF71FFAA7E72368C3F81B
:10151800508041462046FFF763FFA2E723684FF457
:1015280000721A652046FFF75CFFA0E72368D3F82E
:10153800D410D3F8DC208020186511402046FFF72E
:1015480051FF9AE723684FF400521A652046FFF7C7
:101558004BFF98E723684FF400421A652046FFF7CF
:1015680044FF96E723681F6539462046FFF740FF8A
:101578009FE72046FFF73BFFA4E7000010B4054CA7
:10158800616941F0010161610260BFF36F8F4360DF
:1015980010BC704700200240094A536943F4802375
:1015A8005361EFF3108C72B6402351F8042B40F8C6
:1015B800042B013B13F0FF03F7D18CF3108870471D
:1015C80000200240094B5B69002B01DB00207047BB
:1015D800064B074A9A6002F188329A605B69002BD1
:1015E80001DB002070470120704700BF0020024047
:1015F80023016745054B5A6942F000425A615B690D
:10160800002B01DB012070470020704700200240BA
:1016180038B50546FFF758FB0446134B1B6913F40E
:10162800803F06D0FFF750FB001BA842F5D90320E6
:1016380038BD0D4B1B694CF2FA32134009D10A4BE5
:101648001B6913F0010F0CD0074B01221A6100200F
:10165800EEE706494A681A434A60034A13610120C3
:10166800E6E70020E4E700BF002002400C0000206D
:101678002DE9F0411646284A1278012A49D0044635
:101688000D469846244B01221A704FF47A70FFF7E2
:10169800BFFF074608BB204B00225A601F4B1B6840
:1016A80013F4806F1FD01D4A136823F480631360FE
:1016B800194B02221A77D4B1631E012B1ED90024BC
:1016C8004FF47A70FFF7A4FF074624B1134A536911
:1016D80023EA0404546100F047F80F4B00221A7003
:1016E8003846BDE8F0810C4B00221A77E3E7324612
:1016F80043462846FFF742FF0124E1E731462846E2
:10170800FFF74AFF022C01D00024D9E74FF48024C8
:10171800D6E70227E4E700BF0C00002000200240C3
:1017280010F0010F04D0054A536943F004035361D4
:10173800024A536943F480335361704700200240E2
:10174800084B5A6922F4FC72C00000F4FF6002439F
:101758005A615A6942F002025A615A6942F4803267
:101768005A61704700200240164B1B7FDBB2012BE9
:1017780001D0032B10D1144A116821F400711160B3
:10178800116841F400611160116821F40061116071
:10179800116841F400711160023BDBB2012B03D9DF
:1017A800084B00221A777047074B1A6842F4805298
:1017B8001A601A6822F480521A601A6842F4806229
:1017C8001A60EDE70C00002000200240F8B5384B05
:1017D8001B78012B69D004460E46354B01221A703E
:1017E8004FF47A70FFF714FF0746002858D1304BA2
:1017F80000225A602F4B1B6813F4007F2DD02D4B0D
:101808001B6813F4806F24D02A4A136823F480637A
:101818001360274B03221A772368012B2FD04FF030
:10182800FF333360A568A368E2681344AB4235D937
:1018380061682846FFF784FF4FF47A70FFF7E8FEE7
:101848001C4A536923F4FD735361074628BB0135CD
:10185800E9E7174B01221A77DEE7164B1B6813F4EA
:10186800806F08D0134A136823F480631360104B09
:1018780002221A77D0E70E4B00221A77CCE760686D
:10188800FFF74EFF4FF47A70FFF7C2FE0746094A8A
:10189800536923F00403536100E03560FFF764FFE8
:1018A800034B00221A703846F8BD0227FBE700BF39
:1018B8000C0000200020024070B582B0002365E0D3
:1018C80085685E000324B44025EA0405CC68B4406A
:1018D8002C438460446824EA0C0C4C68C4F300145C
:1018E8009C4044EA0C04446061E0DD08083550F887
:1018F800256003F007044FEA840C0F2404FA0CF463
:1019080026EA040E0C6904FA0CF444EA0E0440F8C2
:10191800254063E0052400E0002404FA0EF42C437B
:101928000CF1020C574D45F82C40574CA568D44390
:1019380025EA0206D1F804C01CF4801F01D042EA4F
:101948000506514DAE60ED6804EA0506D1F804C0FD
:101958001CF4001F01D042EA05064B4DEE606D688D
:1019680004EA0506D1F804C01CF4003F01D042EA9D
:101978000506454D6E602D682C404E6816F4803F74
:1019880001D042EA0504404A146001330A6832FA79
:1019980003F474D04FF0010C0CFA03FC1CEA0202A9
:1019A800F3D04C6804F00304013C012C88D94C683E
:1019B80004F00304032C0CD0C4685D004FF0030C42
:1019C8000CFA05FC24EA0C0C8C68AC4044EA0C04C4
:1019D800C4604C6804F00304022C86D004684FEA03
:1019E800430E4FF0030C0CFA0EFC24EA0C0C4C6866
:1019F80004F0030404FA0EF444EA0C0404604C688E
:101A080014F4403FC1D0214C256E45F001052566F0
:101A1800246E04F001040194019C4FEA930C0CF12C
:101A28000205184C54F8255003F003044FEA840EBD
:101A38000F2404FA0EF425EA0405B0F1904F3FF4A0
:101A48006BAF134CA04212D004F58064A04210D0B2
:101A580004F58064A0420ED004F58064A0420CD046
:101A680004F58064A0423FF455AF062455E70124ED
:101A780053E7022451E703244FE704244DE702B05B
:101A880070BD00BF0000014000040140001002408A
:101A9800000400480AB18161704781627047436958
:101AA80001EA030221EA030141EA02418161704728
:101AB800002836D13E4B1B6803F4C063B3F5806F32
:101AC80008D03B4AD2F8803023F48073C2F88030C3
:101AD80000207047364AD2F8803023F48073C2F869
:101AE8008030136823F4C06343F400731360314BF0
:101AF8001B68322202FB03F32F4AA2FB03239B0C31
:101B0800013300E0013B2A4A526912F4806F01D088
:101B1800002BF7D1264B5B6913F4806F44D100206A
:101B28007047B0F5007F08D0214A136823F4C063DA
:101B380043F480631360002070471D4B1B6803F457
:101B4800C063B3F5806F08D0194AD2F8803043F4E7
:101B58008073C2F8803000207047154AD2F8803070
:101B680043F48073C2F88030136823F4C06343F4ED
:101B7800007313600F4B1B68322202FB03F30E4AFB
:101B8800A2FB03239B0C013300E0013B084A526986
:101B980012F4806F01D0002BF7D1054B5B6913F469
:101BA800806F03D1002070470320704703207047DF
:101BB800007000400000002083DE1B43024A936847
:101BC80043F480439360704700700040124BDA681A
:101BD80002F00302D868C0F30310431C032A11D093
:101BE8000E48B0FBF3F00C4BDB68C3F3062303FB92
:101BF80000F0094BDB68C3F3416301335B00B0FBC2
:101C0800F3F070470648B0FBF3F0034BDB68C3F30F
:101C1800062303FB00F0ECE7001002400024F40068
:101C280000127A0038B5FFF74FF804462C4A1368BB
:101C380043F4807313602A4B1B6813F4806F07D139
:101C4800FFF742F8001B0228F5D90324204638BDC7
:101C5800234D6B6843F080436B60FFF735F804460B
:101C68000123AB601E4B9B6803F00C03042B08D0C8
:101C7800FFF72AF8001B41F288339842F2D903246F
:101C8800E4E7184B184A1A60184B1868FEF7D8FF93
:101C9800044608B10124D9E7114B4FF480721A6049
:101CA8001A60FFF711F805460D4B1B6813F0007F0B
:101CB80006D0FFF709F8401B0228F5D90324C5E729
:101CC800074B4FF48052DA6000229A614FF0FF32DE
:101CD8001A62D3F8942042F40002C3F89420B5E7BE
:101CE80000100240000000200024F400080000203A
:101CF800002800F04F8270B582B00446036813F0E4
:101D0800010F37D0A44A936803F00C03D26802F09D
:101D180003020C2B23D0082B23D06368B3F5803F34
:101D28004ED0B3F5A02F51D09B4B1A6822F48032C5
:101D38001A601A6822F480221A606368002B52D055
:101D4800FEF7C2FF0546944B1B6813F4003F11D100
:101D5800FEF7BAFF401B6428F5D9032023E2032AC3
:101D6800D9D18D4B1B6813F4003F03D06368002B57
:101D780000F01282236813F0020F5DD0864A936840
:101D880003F00C03D26802F003020C2B3AD0042BA8
:101D98003AD0E368002B75D07F4A136843F4807308
:101DA8001360FEF791FF05467B4B1B6813F4806FA9
:101DB8005FD1FEF789FF401B0228F5D90320F2E125
:101DC800754A136843F480331360B6E703F1804320
:101DD800A3F53C331A6842F480221A601A6842F468
:101DE80080321A60A9E7FEF76FFF05466A4B1B6849
:101DF80013F4003FBED0FEF767FF401B6428F5D9F7
:101E08000320D0E1022AC2D1634B1B6813F4806F10
:101E180003D0E368002B00F0C1815F4A536823F0C8
:101E2800FE43216943EA016353605C4B1868FEF77F
:101E380007FF002840F0B481236813F0080F4CD046
:101E480063699BB3544AD2F8943043F00103C2F853
:101E58009430FEF739FF05464F4BD3F8943013F012
:101E6800020F3AD1FEF730FF401B0228F4D90320B5
:101E780099E1494A536823F0FE43216943EA016323
:101E88005360D9E7444A136823F480731360FEF75C
:101E98001BFF0546404B1B6813F4806FCCD0FEF740
:101EA80013FF401B0228F5D903207CE13A4AD2F8F7
:101EB800943023F00103C2F89430FEF705FF05467D
:101EC800354BD3F8943013F0020F06D0FEF7FCFE22
:101ED800401B0228F4D9032065E1236813F0040F9E
:101EE80000F081802C4B9B6D13F0805F36D12A4B1C
:101EF8009A6D42F080529A659B6D03F0805301936E
:101F0800019B0125264B1B6813F4807F28D0A3680A
:101F1800012B39D0052B45D01F4BD3F8902022F048
:101F28000102C3F89020D3F8902022F00402C3F8ED
:101F38009020A368002B43D0FEF7C6FE0646164B3A
:101F4800D3F8903013F0020F4CD1FEF7BDFE801B82
:101F580041F288339842F2D9032024E10025D1E7E1
:101F68000F4A136843F480731360FEF7ADFE06460C
:101F78000B4B1B6813F4807FC9D1FEF7A5FE801BAD
:101F88000228F5D903200EE1034AD2F8903043F035
:101F98000103C2F89030CCE700100240080000208E
:101FA80000700040884BD3F8902042F00402C3F838
:101FB8009020D3F8902042F00102C3F89020B8E7AF
:101FC800FEF782FE0646804BD3F8903013F0020FDE
:101FD80008D0FEF779FE801B41F288339842F2D987
:101FE8000320E0E0E5B9236813F0200F35D0A3699A
:101FF800E3B1754AD2F8983043F00103C2F898303B
:10200800FEF762FE0546704BD3F8983013F0020FC6
:1020180023D1FEF759FE401B0228F4D90320C2E061
:10202800694A936D23F080539365DCE7664AD2F8DA
:10203800983023F00103C2F89830FEF745FE0546B4
:10204800614BD3F8983013F0020F06D0FEF73CFE30
:10205800401B0228F4D90320A5E0E369002B00F017
:10206800A180594A926802F00C020C2A64D0022B13
:1020780013D0554A136823F080731360FEF724FECB
:102088000446514B1B6813F0007F4ED0FEF71CFE30
:10209800001B0228F5D9032085E04B4A136823F07A
:1020A80080731360FEF710FE0546474B1B6813F05C
:1020B800007F06D0FEF708FE401B0228F5D9032052
:1020C80071E0414AD36841491940236A606A01387E
:1020D80043EA0013A06A43EA0023206B4008013852
:1020E80043EA4053606B4008013843EA4063E06AC2
:1020F80043EAC0630B43D360136843F080731360F3
:10210800D36843F08073D360FEF7DEFD04462E4BA0
:102118001B6813F0007F06D1FEF7D6FD001B0228CE
:10212800F5D903203FE000203DE0274AD168284B3D
:102138000B40D360002036E0012B36D0224BDB6801
:1021480003F00301226A914231D103F0F002616A7F
:102158000139B2EB011F2CD103F4FE42A16AB2EBA4
:10216800012F28D103F07842E16AB2EBC16F24D184
:1021780003F4C001226B5208013AB1EB425F1ED151
:1021880003F0C063626B5208013AB3EB426F18D197
:10219800002008E001207047012004E0012002E04F
:1021A800012000E0002002B070BD0120FBE7012003
:1021B800F9E70120F7E70120F5E70120F3E701201F
:1021C800F1E70120EFE700BF001002400C809F01FB
:1021D800FCFFEEFE1E4B9B6803F00C03042B33D070
:1021E8001B4B9B6803F00C03082B2FD0184B9B68E4
:1021F80003F00C030C2B01D000207047144BDA6855
:1022080002F00302D868C0F30310431C032A11D05C
:102218001048B0FBF3F00E4BDB68C3F3062303FB57
:1022280000F00B4BDB68C3F3416301335B00B0FB89
:10223800F3F070470848B0FBF3F0054BDB68C3F3D5
:10224800062303FB00F0ECE702487047024870479A
:10225800001002400024F40000127A00002800F068
:10226800E680F8B50C460546744B1B6803F00F036F
:102278008B420BD2714A136823F00F030B43136090
:10228800136803F00F038B4240F0D3802E6816F0DA
:1022980001065FD06B68032B2FD0022B4DD0684B03
:1022A8001B6813F4806F00F0C680FFF793FF654B3F
:1022B80098424DD9624A936823F0F00343F08003B3
:1022C800936080265E4A936823F0030369680B4392
:1022D8009360FEF7F9FC0746594B9B6803F00C0323
:1022E8006A68B3EB820F35D0FEF7EEFCC01B41F2F3
:1022F80088339842F0D9032078E0514B1B6813F0DB
:10230800007F01D1012071E0FFF760FC4D4B98423E
:102318001AD94B4B9B6813F0F00F05D02E6816F0B6
:102328000206CFD0AB688BB9454A936823F0F00317
:1023380043F0800393608026C4E7414B1B6813F485
:10234800003FB2D1012051E00026BBE70026B9E7E3
:102358000026B7E72B6813F0020F48D013F0040FDC
:1023680004D0374A936843F4E06393602B6813F012
:10237800080F06D0324A936823F47C5343F4E06391
:1023880093602F4A936823F0F003A9680B43936086
:102398002A4B1B6803F00F03A34230D82B6813F0B5
:1023A800040F06D0264A936823F4E063E9680B43D8
:1023B80093602B6813F0080F07D0214A936823F421
:1023C8006053296943EAC1039360FFF703FF1C4B7D
:1023D8009B68C3F303131C4AD35C03F01F03D84064
:1023E8001A4B18601A4B1868FEF72AFCF8BD802EA5
:1023F800CED1134A936823F0F0039360C8E70F4ADD
:10240800136823F00F0323431360FEF75DFC0646B1
:102418000A4B1B6803F00F03A342BFD0FEF754FC1E
:10242800801B41F288339842F2D90320DEE701206D
:1024380070470120DAE70120D8E700BF00200240FA
:102448000010024000B4C404682D000800000020F9
:1024580008000020F0B583B00446036813F4002F89
:1024680069D0AE4B9B6D13F0805F1ED1AB4B9A6D5C
:1024780042F080529A659B6D03F080530193019B53
:102488000126A74A136843F480731360FEF71CFC07
:102498000546A34B1B6813F4807F08D1FEF714FC94
:1024A800401B0228F5D9032502E00026E9E70025AC
:1024B80045BB9A4BD3F8903013F4407315D0226C77
:1024C8009A4212D0954AD2F8903023F44073D2F849
:1024D800901041F48031C2F89010D2F8901021F495
:1024E8008031C2F89010C2F8903013F0010F10D16B
:1024F80045B98A4AD2F8903023F44073216C0B43D3
:10250800C2F89030C6B1854A936D23F08053936525
:1025180012E0FEF7D9FB0746804BD3F8903013F052
:10252800020FE5D1FEF7D0FBC01B41F28833984279
:10253800F2D90325DCE70025236813F0010F08D042
:10254800764AD2F8883023F0030361680B43C2F857
:102558008830236813F0020F08D0704AD2F8883008
:1025680023F00C03A1680B43C2F88830236813F0EA
:10257800040F08D0694AD2F8883023F03003E168A4
:102588000B43C2F88830236813F0080F08D0634A59
:10259800D2F8883023F0C00321690B43C2F8883091
:1025A800236813F0200F08D05C4AD2F8883023F44F
:1025B800406361690B43C2F88830236813F0400F09
:1025C80008D0564AD2F8883023F44053A1690B4307
:1025D800C2F88830236813F0800F08D04F4AD2F829
:1025E800883023F44043E1690B43C2F888302368FC
:1025F80013F4807F08D0494AD2F8883023F4403356
:10260800216A0B43C2F88830236813F4007F08D08E
:10261800424AD2F8883023F44023616A0B43C2F857
:102628008830236813F4806F0CD03C4AD2F8883085
:1026380023F44013A16A0B43C2F88830A36AB3F5A8
:10264800801F57D0236813F4006F0CD0334AD2F898
:10265800883023F44003E16A0B43C2F88830E36A08
:10266800B3F5800F4BD0236813F4805F0CD02B4A4E
:10267800D2F8883023F04073216B0B43C2F88830BE
:10268800236BB3F1807F3FD0236813F4005F0CD035
:10269800224AD2F8883023F04063616B0B43C2F8BA
:1026A8008830636BB3F1006F33D0236813F4804F25
:1026B8000CD01A4AD2F8883023F04063A16B0B4340
:1026C800C2F88830A36BB3F1006F2BD0236813F4E2
:1026D800004F0CD0114AD2F8883023F04053E16BF8
:1026E8000B43C2F88830E36BB3F1805F1FD02846F4
:1026F80003B0F0BDD36843F48013D360A2E7D36876
:1027080043F48013D360AEE7D36843F48013D360F7
:10271800BAE7D36843F48013D360C6E700100240D9
:1027280000700040D36843F48013D360CEE7D368C9
:1027380043F48033D360DAE790F83D30DBB2012B05
:1027480032D1022380F83D300268D36843F0010398
:10275800D3600368174A934218D0B3F1804F15D05D
:10276800A2F59432934211D002F5806293420DD0C3
:1027780002F59632934209D002F54062934205D0A1
:102788001A6842F001021A600020704799680A4AE4
:102798000A40062A0AD0B2F5803F09D01A6842F0EA
:1027A80001021A600020704701207047002070471E
:1027B80000207047002C0140070001007047704757
:1027C8007047704770B505460368DE681C6914F0E9
:1027D800020F10D016F0020F0DD06FF002021A612E
:1027E8000123037703689B6913F0030F7CD0FFF77D
:1027F800E6FF00232B7714F0040F12D016F0040F15
:102808000FD02B686FF004021A6102232B772B6814
:102818009B6913F4407F6DD02846FFF7D0FF002353
:102828002B7714F0080F12D016F0080F0FD02B6872
:102838006FF008021A6104232B772B68DB6913F009
:10284800030F5ED02846FFF7BAFF00232B7714F05A
:10285800100F12D016F0100F0FD02B686FF0100267
:102868001A6108232B772B68DB6913F4407F4FD05C
:102878002846FFF7A4FF00232B7714F0010F02D09E
:1028880016F0010F4BD114F4025F02D016F0800F3E
:102898004DD114F4807F02D016F0800F4FD114F080
:1028A800400F02D016F0400F51D114F0200F02D083
:1028B80016F0200F53D114F4801F02D016F4801F95
:1028C80055D114F4001F02D016F4001F57D114F488
:1028D800800F02D016F4800F59D114F4000F02D0E3
:1028E80016F4000F5BD170BDFFF768FF2846FFF7AD
:1028F80067FF7EE72846FFF761FF2846FFF760FF7E
:102908008DE72846FFF75AFF2846FFF759FF9CE74F
:102918002846FFF753FF2846FFF752FFABE72B681F
:102928006FF001021A612846FEF7F6F8ABE72B684C
:102938006FF402521A61284600F019F9A9E72B68CA
:102948006FF480721A61284600F012F9A7E72B6825
:102958006FF040021A612846FFF733FFA5E72B689E
:102968006FF020021A61284600F000F9A3E72B68EF
:102978006FF480121A61284600F0FBF8A1E72B6873
:102988006FF400121A61284600F0F4F89FE72B68EC
:102998006FF480021A61284600F0EDF89DE72B6875
:1029A8006FF400021A61284600F0E6F89BE7000081
:1029B8000368304A90420ED0B0F1804F0BD0A2F598
:1029C8009432904207D002F58062904203D002F51B
:1029D8009632904203D123F070034A681343254A84
:1029E80090421AD0B0F1804F17D0A2F5943290429D
:1029F80013D002F5806290420FD002F596329042D1
:102A08000BD002F54062904207D002F580629042F6
:102A180003D002F58062904203D123F44073CA6860
:102A2800134323F080034A69134303608B68C3622E
:102A38000B6883620F4B98420FD003F500639842EE
:102A48000BD003F54063984207D003F580639842A2
:102A580003D003F58063984201D10B690363012316
:102A68004361036913F0010F03D0036923F00103E5
:102A780003617047002C014060B310B5044690F81C
:102A88003D3013B3022384F83D30214651F8040B3E
:102A9800FFF78EFF012384F8483084F83E3084F82D
:102AA8003F3084F8403084F8413084F8423084F86C
:102AB800433084F8443084F8453084F8463084F84C
:102AC800473084F83D30002010BD80F83C30FDF7D9
:102AD80005FDD7E70120704790F83C30012B40D026
:102AE80030B4012380F83C30022380F83D3002687E
:102AF800536894681C4DAA4203D005F50065AA42A4
:102B080003D123F470034D682B4323F0007323F0A3
:102B180070030D682B4353600368134A934212D025
:102B2800B3F1804F0FD0A2F5943293420BD002F547
:102B38008062934207D002F59632934203D002F5A1
:102B48004062934204D124F080048A6814439C6054
:102B5800012380F83D30002380F83C30184630BC13
:102B680070470220704700BF002C01407047704733
:102B780070477047704770477047000070B50D4E3A
:102B88000D4D761BB61006D0002455F8043B0134D1
:102B98009847A642F9D1094E094D761B00F0D4F8A2
:102BA800B61006D0002455F8043B01349847A642D5
:102BB800F9D170BD8C2D00088C2D0008942D0008CB
:102BC8008C2D0008830730B548D0541E002A3FD00A
:102BD800CAB2034601E0013C3AD303F8012B9D0732
:102BE800F9D1032C2DD9CDB245EA05250F2C45EA9C
:102BF800054536D9A4F1100222F00F0C03F1200E7E
:102C0800E6444FEA121C03F1100242E9045542E976
:102C1800025510327245F8D10CF1010214F00C0F74
:102C280003EB021204F00F0C13D0ACF1040323F0F1
:102C380003030433134442F8045B9342FBD10CF0C2
:102C480003042CB1CAB21C4403F8012B9C42FBD1EB
:102C580030BD64461346002CF4D1F9E70346144608
:102C6800BFE71A46A446E0E7024B13B1024800F05A
:102C780005B8704700000000912C000800230146A9
:102C88001A46184600F01AB838B5084B084D5B1BB1
:102C98009C1007D0043B1D44013C55F80439984763
:102CA800002CF9D1BDE8384000F054B8982D000840
:102CB800942D0008704700BF704700BF2DE9F0470A
:102CC800DFF87CA00646DAF8000098460F469146E1
:102CD800FFF7F0FF1B4B1B68D3F8484124B3656826
:102CE8001F2D26DC5EB96B1C0235DAF80000636024
:102CF80044F82570FFF7E0FF0020BDE8F08704EBFB
:102D080085010123C1F88890D4F88821AB401A4383
:102D1800022EC4F88821C1F80881E4D1D4F88C21A6
:102D28001343C4F88C31DEE703F5A674C3F84841B1
:102D3800D5E7DAF80000FFF7BFFF4FF0FF30DCE718
:102D480058040020882D0008F8B500BFF8BC08BC5E
:102D58009E467047F8B500BFF8BC08BC9E46704751
:102D68000000000000000000010203040607080933
:102D78000001020304050607080C1014182030404F
:042D880030000020F7
:082D8C00712C0008FD01000894
:042D9400D901000859
:102D98000024F40001000000100000000000000002
:102DA800000000000000000000000000010000001A
:102DB800000000000000000000000000000000000B
:102DC800000000001C03002084030020EC03002006
:102DD80000000000000000000000000000000000EB
:102DE80000000000000000000000000000000000DB
:102DF80000000000000000000000000000000000CB
:102E080000000000000000000000000000000000BA
:102E180000000000000000000000000000000000AA
:102E2800000000000000000000000000000000009A
:102E3800000000000000000000000000000000008A
:102E4800000000000000000000000000000000007A
:102E5800000000000000000000000000000000006A
:102E68000000000000000000010000000000000059
:102E78000E33CDAB34126DE6ECDE05000B0000001E
:102E8800000000000000000000000000000000003A
:102E9800000000000000000000000000000000002A
:102EA800000000000000000000000000000000001A
:102EB800000000000000000000000000000000000A
:0C31E8000000000000000000F8050020BE
:0400000508000525C5
:00000001FF
